:100000000C942A000C9447000C9447000C94470071
:100010000C9447000C9447000C9447000C94470044
:100020000C9447000C9447000C9447000C94470034
:100030000C9447000C9447000C9447000C94470024
:100040000C9447000C9447000C9447000C94470014
:100050000C94470011241FBECFE5D8E0DEBFCDBF12
:1000600010E0A0E6B0E0E0EEF3E002C005900D92F3
:10007000A437B107D9F720E0A4E7B0E001C01D9292
:10008000AA37B207E1F70E94E5010C94EE010C9447
:10009000000082BBA898A998AA9A83EC99E00197DE
:1000A000F1F700C00000AA98089582BBA89AA99809
:1000B000AA9A83EC99E00197F1F700C00000AA9892
:1000C000089588E30E9449008EE00E94490086E07E
:1000D0000E94490081E00E94490080E80E94490096
:1000E000089530EF2FEF9FEE6FED5FEB4FE73ABBD8
:1000F0002BBB8BB38F708BBB000089B38F70809349
:1001000078008F30B1F7E7E8F3E13197F1F700C0FD
:10011000000089B38F70809378008F30A1F3EFE0F7
:10012000F7E23197F1F700C0000089B38F70809338
:1001300078008F3041F39BBB000089B38F708093B0
:1001400078008F3019F01092790024C06BBB00004A
:1001500089B38F70809378008F3021F081E0809395
:10016000790018C05BBB000089B38F708093780062
:100170008F3021F082E0809379000CC04BBB0000EF
:1001800089B38F70809378008F3009F4B0CF83E00B
:1001900080937900809178008E3059F4E091790055
:1001A000F0E0EE0FFF1FEE0FFF1FE05AFF4F8081C0
:1001B00008958D3059F4E0917900F0E0EE0FFF1FC3
:1001C000EE0FFF1FE05AFF4F818108958B3059F4E5
:1001D000E0917900F0E0EE0FFF1FEE0FFF1FE05AF5
:1001E000FF4F82810895E0917900F0E0EE0FFF1F4C
:1001F000EE0FFF1FE05AFF4F8381089581E00E94B8
:10020000490085E40E9455008EE40E94550084E573
:100210000E94550085E40E94550082E50E94550029
:100220000E94BC010895EF92FF920F931F93CF930A
:10023000DF937C0100E710E0C0E0D0E0F70191918E
:100240007F01F80181918F0198132BC0C330D10534
:1002500009F044C081E00E94490085E50E945500F4
:100260008EE40E9455008CE40E9455008FE40E94A9
:10027000550083E40E9455008BE40E94550085E4FC
:100280000E94550084E40E945500FFE322E48FE0C1
:10029000F15020408040E1F700C000000E94FE00C5
:1002A00022C081E00E94490087E50E94550082E556
:1002B0000E9455008FE40E9455008EE40E94550074
:1002C00087E40E9455009FE3E2E4FFE09150E040A4
:1002D000F040E1F700C000000E94FE002196C4300B
:1002E000D10509F0ABCFDF91CF911F910F91FF9016
:1002F000EF9008958234F1F08334F1F08134D9F530
:1003000085E40E9455008EE40E94550084E50E9419
:10031000550085E40E94550082E50E9455002FE3B8
:100320008DE093E0215080409040E1F700C0000054
:100330000E94BC010E94FE008CE40E9455008FE4E4
:100340000E94550083E40E9455008BE40E945500F2
:1003500085E40E94550084E40E9455002FE38DE05F
:1003600093E0215080409040E1F700C0000081E020
:100370000E944900C5CF08950F931F93CF93DF9339
:10038000C4E7D0E008E710E00E94710089939FEB7A
:10039000980F943010F40E947A018AE20E9455006E
:1003A0002FE986E891E0215080409040E1F700C0BD
:1003B0000000C017D10741F784E790E00E941301C5
:1003C000DF91CF911F910F9108958FEF87BB81BB74
:1003D00084BB0E9461000E94BC010895F894FFCF85
:1003E0003132334134353642373839432A302344A9
:0403F000313233343F
:00000001FF
